{
  "_format": "hh-sol-artifact-1",
  "contractName": "AnasCalculator",
  "sourceName": "contracts/AnasCalculator.sol",
  "abi": [
    {
      "inputs": [
        {
          "internalType": "string",
          "name": "name",
          "type": "string"
        }
      ],
      "stateMutability": "nonpayable",
      "type": "constructor"
    },
    {
      "anonymous": false,
      "inputs": [
        {
          "indexed": false,
          "internalType": "int256",
          "name": "result",
          "type": "int256"
        }
      ],
      "name": "AdditionResult",
      "type": "event"
    },
    {
      "anonymous": false,
      "inputs": [
        {
          "indexed": false,
          "internalType": "int256",
          "name": "result",
          "type": "int256"
        }
      ],
      "name": "DivisionResult",
      "type": "event"
    },
    {
      "anonymous": false,
      "inputs": [
        {
          "indexed": false,
          "internalType": "int256",
          "name": "result",
          "type": "int256"
        }
      ],
      "name": "MultiplicationResult",
      "type": "event"
    },
    {
      "anonymous": false,
      "inputs": [
        {
          "indexed": false,
          "internalType": "int256",
          "name": "result",
          "type": "int256"
        }
      ],
      "name": "SubtractionResult",
      "type": "event"
    },
    {
      "inputs": [
        {
          "internalType": "int256",
          "name": "a",
          "type": "int256"
        },
        {
          "internalType": "int256",
          "name": "b",
          "type": "int256"
        }
      ],
      "name": "add",
      "outputs": [],
      "stateMutability": "nonpayable",
      "type": "function"
    },
    {
      "inputs": [
        {
          "internalType": "int256",
          "name": "a",
          "type": "int256"
        },
        {
          "internalType": "int256",
          "name": "b",
          "type": "int256"
        }
      ],
      "name": "divide",
      "outputs": [],
      "stateMutability": "nonpayable",
      "type": "function"
    },
    {
      "inputs": [
        {
          "internalType": "int256",
          "name": "a",
          "type": "int256"
        },
        {
          "internalType": "int256",
          "name": "b",
          "type": "int256"
        }
      ],
      "name": "multiply",
      "outputs": [],
      "stateMutability": "nonpayable",
      "type": "function"
    },
    {
      "inputs": [],
      "name": "ownerAddress",
      "outputs": [
        {
          "internalType": "address",
          "name": "",
          "type": "address"
        }
      ],
      "stateMutability": "view",
      "type": "function"
    },
    {
      "inputs": [],
      "name": "ownerName",
      "outputs": [
        {
          "internalType": "string",
          "name": "",
          "type": "string"
        }
      ],
      "stateMutability": "view",
      "type": "function"
    },
    {
      "inputs": [
        {
          "internalType": "int256",
          "name": "a",
          "type": "int256"
        },
        {
          "internalType": "int256",
          "name": "b",
          "type": "int256"
        }
      ],
      "name": "subtract",
      "outputs": [],
      "stateMutability": "nonpayable",
      "type": "function"
    }
  ],
  "bytecode": "0x60806040523480156200001157600080fd5b5060405162000d6d38038062000d6d833981810160405281019062000037919062000224565b8060009081620000489190620004c0565b5033600160006101000a81548173ffffffffffffffffffffffffffffffffffffffff021916908373ffffffffffffffffffffffffffffffffffffffff16021790555050620005a7565b6000604051905090565b600080fd5b600080fd5b600080fd5b600080fd5b6000601f19601f8301169050919050565b7f4e487b7100000000000000000000000000000000000000000000000000000000600052604160045260246000fd5b620000fa82620000af565b810181811067ffffffffffffffff821117156200011c576200011b620000c0565b5b80604052505050565b60006200013162000091565b90506200013f8282620000ef565b919050565b600067ffffffffffffffff821115620001625762000161620000c0565b5b6200016d82620000af565b9050602081019050919050565b60005b838110156200019a5780820151818401526020810190506200017d565b60008484015250505050565b6000620001bd620001b78462000144565b62000125565b905082815260208101848484011115620001dc57620001db620000aa565b5b620001e98482856200017a565b509392505050565b600082601f830112620002095762000208620000a5565b5b81516200021b848260208601620001a6565b91505092915050565b6000602082840312156200023d576200023c6200009b565b5b600082015167ffffffffffffffff8111156200025e576200025d620000a0565b5b6200026c84828501620001f1565b91505092915050565b600081519050919050565b7f4e487b7100000000000000000000000000000000000000000000000000000000600052602260045260246000fd5b60006002820490506001821680620002c857607f821691505b602082108103620002de57620002dd62000280565b5b50919050565b60008190508160005260206000209050919050565b60006020601f8301049050919050565b600082821b905092915050565b600060088302620003487fffffffffffffffffffffffffffffffffffffffffffffffffffffffffffffffff8262000309565b62000354868362000309565b95508019841693508086168417925050509392505050565b6000819050919050565b6000819050919050565b6000620003a16200039b62000395846200036c565b62000376565b6200036c565b9050919050565b6000819050919050565b620003bd8362000380565b620003d5620003cc82620003a8565b84845462000316565b825550505050565b600090565b620003ec620003dd565b620003f9818484620003b2565b505050565b5b81811015620004215762000415600082620003e2565b600181019050620003ff565b5050565b601f82111562000470576200043a81620002e4565b6200044584620002f9565b8101602085101562000455578190505b6200046d6200046485620002f9565b830182620003fe565b50505b505050565b600082821c905092915050565b6000620004956000198460080262000475565b1980831691505092915050565b6000620004b0838362000482565b9150826002028217905092915050565b620004cb8262000275565b67ffffffffffffffff811115620004e757620004e6620000c0565b5b620004f38254620002af565b6200050082828562000425565b600060209050601f83116001811462000538576000841562000523578287015190505b6200052f8582620004a2565b8655506200059f565b601f1984166200054886620002e4565b60005b8281101562000572578489015182556001820191506020850194506020810190506200054b565b868310156200059257848901516200058e601f89168262000482565b8355505b6001600288020188555050505b505050505050565b6107b680620005b76000396000f3fe608060405234801561001057600080fd5b50600436106100625760003560e01c80633c4308a81461006757806365ac2320146100835780638f84aa09146100a1578063a5f3c23b146100bf578063b93ea812146100db578063f5984236146100f7575b600080fd5b610081600480360381019061007c9190610375565b610113565b005b61008b61015f565b6040516100989190610445565b60405180910390f35b6100a96101ed565b6040516100b691906104a8565b60405180910390f35b6100d960048036038101906100d49190610375565b610213565b005b6100f560048036038101906100f09190610375565b61025f565b005b610111600480360381019061010c9190610375565b6102ab565b005b6000818361012191906104f2565b90507f210e4a658d9ea04b84c7998b5a73abc09d7831fe8426162248508e12692a96ff816040516101529190610579565b60405180910390a1505050565b6000805461016c906105c3565b80601f0160208091040260200160405190810160405280929190818152602001828054610198906105c3565b80156101e55780601f106101ba576101008083540402835291602001916101e5565b820191906000526020600020905b8154815290600101906020018083116101c857829003601f168201915b505050505081565b600160009054906101000a900473ffffffffffffffffffffffffffffffffffffffff1681565b6000818361022191906105f4565b90507f514fee908bd32c04c3d8721ff175d9863c467695e783e453dc1e40952d5ab053816040516102529190610579565b60405180910390a1505050565b6000818361026d9190610638565b90507fbc4cf68d45a613937f630219ce76dd52220cfc56e13c9155e261d216bc9c57c78160405161029e9190610579565b60405180910390a1505050565b600081036102ee576040517f08c379a00000000000000000000000000000000000000000000000000000000081526004016102e5906106c7565b60405180910390fd5b600081836102fc9190610716565b90507f64f5a6681b9eb88d18afa2a7b7fe3a7ae6d1483ade90556dc8ccf40769908bc88160405161032d9190610579565b60405180910390a1505050565b600080fd5b6000819050919050565b6103528161033f565b811461035d57600080fd5b50565b60008135905061036f81610349565b92915050565b6000806040838503121561038c5761038b61033a565b5b600061039a85828601610360565b92505060206103ab85828601610360565b9150509250929050565b600081519050919050565b600082825260208201905092915050565b60005b838110156103ef5780820151818401526020810190506103d4565b60008484015250505050565b6000601f19601f8301169050919050565b6000610417826103b5565b61042181856103c0565b93506104318185602086016103d1565b61043a816103fb565b840191505092915050565b6000602082019050818103600083015261045f818461040c565b905092915050565b600073ffffffffffffffffffffffffffffffffffffffff82169050919050565b600061049282610467565b9050919050565b6104a281610487565b82525050565b60006020820190506104bd6000830184610499565b92915050565b7f4e487b7100000000000000000000000000000000000000000000000000000000600052601160045260246000fd5b60006104fd8261033f565b91506105088361033f565b92508282026105168161033f565b91507f8000000000000000000000000000000000000000000000000000000000000000841460008412161561054e5761054d6104c3565b5b8282058414831517610563576105626104c3565b5b5092915050565b6105738161033f565b82525050565b600060208201905061058e600083018461056a565b92915050565b7f4e487b7100000000000000000000000000000000000000000000000000000000600052602260045260246000fd5b600060028204905060018216806105db57607f821691505b6020821081036105ee576105ed610594565b5b50919050565b60006105ff8261033f565b915061060a8361033f565b925082820190508281121560008312168382126000841215161715610632576106316104c3565b5b92915050565b60006106438261033f565b915061064e8361033f565b9250828203905081811260008412168282136000851215161715610675576106746104c3565b5b92915050565b7f43616e6e6f7420646976696465206279207a65726f0000000000000000000000600082015250565b60006106b16015836103c0565b91506106bc8261067b565b602082019050919050565b600060208201905081810360008301526106e0816106a4565b9050919050565b7f4e487b7100000000000000000000000000000000000000000000000000000000600052601260045260246000fd5b60006107218261033f565b915061072c8361033f565b92508261073c5761073b6106e7565b5b600160000383147f800000000000000000000000000000000000000000000000000000000000000083141615610775576107746104c3565b5b82820590509291505056fea26469706673582212208d3b86d5bfab2e990e4c24c4b586d1e876992dd7cee76471e78e927a69078de764736f6c63430008120033",
  "linkReferences": {},
  "deployedLinkReferences": {}
}