{
  "_format": "hh-sol-artifact-1",
  "contractName": "AnasCalculator",
  "sourceName": "contracts/AnasCalculator.sol",
  "abi": [
    {
      "inputs": [
        {
          "internalType": "string",
          "name": "name",
          "type": "string"
        }
      ],
      "stateMutability": "nonpayable",
      "type": "constructor"
    },
    {
      "anonymous": false,
      "inputs": [
        {
          "indexed": false,
          "internalType": "int256",
          "name": "result",
          "type": "int256"
        }
      ],
      "name": "AdditionResult",
      "type": "event"
    },
    {
      "anonymous": false,
      "inputs": [
        {
          "indexed": false,
          "internalType": "int256",
          "name": "result",
          "type": "int256"
        }
      ],
      "name": "DivisionResult",
      "type": "event"
    },
    {
      "anonymous": false,
      "inputs": [
        {
          "indexed": false,
          "internalType": "int256",
          "name": "result",
          "type": "int256"
        }
      ],
      "name": "MultiplicationResult",
      "type": "event"
    },
    {
      "anonymous": false,
      "inputs": [
        {
          "indexed": false,
          "internalType": "int256",
          "name": "result",
          "type": "int256"
        }
      ],
      "name": "SubtractionResult",
      "type": "event"
    },
    {
      "inputs": [
        {
          "internalType": "int256",
          "name": "a",
          "type": "int256"
        },
        {
          "internalType": "int256",
          "name": "b",
          "type": "int256"
        }
      ],
      "name": "add",
      "outputs": [],
      "stateMutability": "payable",
      "type": "function"
    },
    {
      "inputs": [
        {
          "internalType": "int256",
          "name": "a",
          "type": "int256"
        },
        {
          "internalType": "int256",
          "name": "b",
          "type": "int256"
        }
      ],
      "name": "divide",
      "outputs": [],
      "stateMutability": "payable",
      "type": "function"
    },
    {
      "inputs": [
        {
          "internalType": "int256",
          "name": "a",
          "type": "int256"
        },
        {
          "internalType": "int256",
          "name": "b",
          "type": "int256"
        }
      ],
      "name": "multiply",
      "outputs": [],
      "stateMutability": "payable",
      "type": "function"
    },
    {
      "inputs": [],
      "name": "ownerAddress",
      "outputs": [
        {
          "internalType": "address",
          "name": "",
          "type": "address"
        }
      ],
      "stateMutability": "view",
      "type": "function"
    },
    {
      "inputs": [],
      "name": "ownerName",
      "outputs": [
        {
          "internalType": "string",
          "name": "",
          "type": "string"
        }
      ],
      "stateMutability": "view",
      "type": "function"
    },
    {
      "inputs": [
        {
          "internalType": "int256",
          "name": "a",
          "type": "int256"
        },
        {
          "internalType": "int256",
          "name": "b",
          "type": "int256"
        }
      ],
      "name": "subtract",
      "outputs": [],
      "stateMutability": "payable",
      "type": "function"
    }
  ],
  "bytecode": "0x60806040523480156200001157600080fd5b5060405162000d7a38038062000d7a833981810160405281019062000037919062000224565b8060009081620000489190620004c0565b5033600160006101000a81548173ffffffffffffffffffffffffffffffffffffffff021916908373ffffffffffffffffffffffffffffffffffffffff16021790555050620005a7565b6000604051905090565b600080fd5b600080fd5b600080fd5b600080fd5b6000601f19601f8301169050919050565b7f4e487b7100000000000000000000000000000000000000000000000000000000600052604160045260246000fd5b620000fa82620000af565b810181811067ffffffffffffffff821117156200011c576200011b620000c0565b5b80604052505050565b60006200013162000091565b90506200013f8282620000ef565b919050565b600067ffffffffffffffff821115620001625762000161620000c0565b5b6200016d82620000af565b9050602081019050919050565b60005b838110156200019a5780820151818401526020810190506200017d565b60008484015250505050565b6000620001bd620001b78462000144565b62000125565b905082815260208101848484011115620001dc57620001db620000aa565b5b620001e98482856200017a565b509392505050565b600082601f830112620002095762000208620000a5565b5b81516200021b848260208601620001a6565b91505092915050565b6000602082840312156200023d576200023c6200009b565b5b600082015167ffffffffffffffff8111156200025e576200025d620000a0565b5b6200026c84828501620001f1565b91505092915050565b600081519050919050565b7f4e487b7100000000000000000000000000000000000000000000000000000000600052602260045260246000fd5b60006002820490506001821680620002c857607f821691505b602082108103620002de57620002dd62000280565b5b50919050565b60008190508160005260206000209050919050565b60006020601f8301049050919050565b600082821b905092915050565b600060088302620003487fffffffffffffffffffffffffffffffffffffffffffffffffffffffffffffffff8262000309565b62000354868362000309565b95508019841693508086168417925050509392505050565b6000819050919050565b6000819050919050565b6000620003a16200039b62000395846200036c565b62000376565b6200036c565b9050919050565b6000819050919050565b620003bd8362000380565b620003d5620003cc82620003a8565b84845462000316565b825550505050565b600090565b620003ec620003dd565b620003f9818484620003b2565b505050565b5b81811015620004215762000415600082620003e2565b600181019050620003ff565b5050565b601f82111562000470576200043a81620002e4565b6200044584620002f9565b8101602085101562000455578190505b6200046d6200046485620002f9565b830182620003fe565b50505b505050565b600082821c905092915050565b6000620004956000198460080262000475565b1980831691505092915050565b6000620004b0838362000482565b9150826002028217905092915050565b620004cb8262000275565b67ffffffffffffffff811115620004e757620004e6620000c0565b5b620004f38254620002af565b6200050082828562000425565b600060209050601f83116001811462000538576000841562000523578287015190505b6200052f8582620004a2565b8655506200059f565b601f1984166200054886620002e4565b60005b8281101562000572578489015182556001820191506020850194506020810190506200054b565b868310156200059257848901516200058e601f89168262000482565b8355505b6001600288020188555050505b505050505050565b6107c380620005b76000396000f3fe6080604052600436106100555760003560e01c80633c4308a81461005a57806365ac2320146100765780638f84aa09146100a1578063a5f3c23b146100cc578063b93ea812146100e8578063f598423614610104575b600080fd5b610074600480360381019061006f9190610382565b610120565b005b34801561008257600080fd5b5061008b61016c565b6040516100989190610452565b60405180910390f35b3480156100ad57600080fd5b506100b66101fa565b6040516100c391906104b5565b60405180910390f35b6100e660048036038101906100e19190610382565b610220565b005b61010260048036038101906100fd9190610382565b61026c565b005b61011e60048036038101906101199190610382565b6102b8565b005b6000818361012e91906104ff565b90507f210e4a658d9ea04b84c7998b5a73abc09d7831fe8426162248508e12692a96ff8160405161015f9190610586565b60405180910390a1505050565b60008054610179906105d0565b80601f01602080910402602001604051908101604052809291908181526020018280546101a5906105d0565b80156101f25780601f106101c7576101008083540402835291602001916101f2565b820191906000526020600020905b8154815290600101906020018083116101d557829003601f168201915b505050505081565b600160009054906101000a900473ffffffffffffffffffffffffffffffffffffffff1681565b6000818361022e9190610601565b90507f514fee908bd32c04c3d8721ff175d9863c467695e783e453dc1e40952d5ab0538160405161025f9190610586565b60405180910390a1505050565b6000818361027a9190610645565b90507fbc4cf68d45a613937f630219ce76dd52220cfc56e13c9155e261d216bc9c57c7816040516102ab9190610586565b60405180910390a1505050565b600081036102fb576040517f08c379a00000000000000000000000000000000000000000000000000000000081526004016102f2906106d4565b60405180910390fd5b600081836103099190610723565b90507f64f5a6681b9eb88d18afa2a7b7fe3a7ae6d1483ade90556dc8ccf40769908bc88160405161033a9190610586565b60405180910390a1505050565b600080fd5b6000819050919050565b61035f8161034c565b811461036a57600080fd5b50565b60008135905061037c81610356565b92915050565b6000806040838503121561039957610398610347565b5b60006103a78582860161036d565b92505060206103b88582860161036d565b9150509250929050565b600081519050919050565b600082825260208201905092915050565b60005b838110156103fc5780820151818401526020810190506103e1565b60008484015250505050565b6000601f19601f8301169050919050565b6000610424826103c2565b61042e81856103cd565b935061043e8185602086016103de565b61044781610408565b840191505092915050565b6000602082019050818103600083015261046c8184610419565b905092915050565b600073ffffffffffffffffffffffffffffffffffffffff82169050919050565b600061049f82610474565b9050919050565b6104af81610494565b82525050565b60006020820190506104ca60008301846104a6565b92915050565b7f4e487b7100000000000000000000000000000000000000000000000000000000600052601160045260246000fd5b600061050a8261034c565b91506105158361034c565b92508282026105238161034c565b91507f8000000000000000000000000000000000000000000000000000000000000000841460008412161561055b5761055a6104d0565b5b82820584148315176105705761056f6104d0565b5b5092915050565b6105808161034c565b82525050565b600060208201905061059b6000830184610577565b92915050565b7f4e487b7100000000000000000000000000000000000000000000000000000000600052602260045260246000fd5b600060028204905060018216806105e857607f821691505b6020821081036105fb576105fa6105a1565b5b50919050565b600061060c8261034c565b91506106178361034c565b92508282019050828112156000831216838212600084121516171561063f5761063e6104d0565b5b92915050565b60006106508261034c565b915061065b8361034c565b9250828203905081811260008412168282136000851215161715610682576106816104d0565b5b92915050565b7f43616e6e6f7420646976696465206279207a65726f0000000000000000000000600082015250565b60006106be6015836103cd565b91506106c982610688565b602082019050919050565b600060208201905081810360008301526106ed816106b1565b9050919050565b7f4e487b7100000000000000000000000000000000000000000000000000000000600052601260045260246000fd5b600061072e8261034c565b91506107398361034c565b925082610749576107486106f4565b5b600160000383147f800000000000000000000000000000000000000000000000000000000000000083141615610782576107816104d0565b5b82820590509291505056fea264697066735822122083bbd87f6a455a1ee5dde9a598bb29c1b8b5466a633e8767a9610f7fa1983d5364736f6c63430008120033",
  "linkReferences": {},
  "deployedLinkReferences": {}
}