{
  "contractName": "AnasCalculator",
  "abi": [
    {
      "inputs": [
        {
          "internalType": "string",
          "name": "name",
          "type": "string"
        }
      ],
      "stateMutability": "nonpayable",
      "type": "constructor"
    },
    {
      "anonymous": false,
      "inputs": [
        {
          "indexed": false,
          "internalType": "int256",
          "name": "result",
          "type": "int256"
        }
      ],
      "name": "AdditionResult",
      "type": "event"
    },
    {
      "anonymous": false,
      "inputs": [
        {
          "indexed": false,
          "internalType": "int256",
          "name": "result",
          "type": "int256"
        }
      ],
      "name": "DivisionResult",
      "type": "event"
    },
    {
      "anonymous": false,
      "inputs": [
        {
          "indexed": false,
          "internalType": "int256",
          "name": "result",
          "type": "int256"
        }
      ],
      "name": "MultiplicationResult",
      "type": "event"
    },
    {
      "anonymous": false,
      "inputs": [
        {
          "indexed": false,
          "internalType": "int256",
          "name": "result",
          "type": "int256"
        }
      ],
      "name": "SubtractionResult",
      "type": "event"
    },
    {
      "inputs": [],
      "name": "ownerAddress",
      "outputs": [
        {
          "internalType": "address",
          "name": "",
          "type": "address"
        }
      ],
      "stateMutability": "view",
      "type": "function"
    },
    {
      "inputs": [],
      "name": "ownerName",
      "outputs": [
        {
          "internalType": "string",
          "name": "",
          "type": "string"
        }
      ],
      "stateMutability": "view",
      "type": "function"
    },
    {
      "inputs": [
        {
          "internalType": "int256",
          "name": "a",
          "type": "int256"
        },
        {
          "internalType": "int256",
          "name": "b",
          "type": "int256"
        }
      ],
      "name": "add",
      "outputs": [],
      "stateMutability": "payable",
      "type": "function"
    },
    {
      "inputs": [
        {
          "internalType": "int256",
          "name": "a",
          "type": "int256"
        },
        {
          "internalType": "int256",
          "name": "b",
          "type": "int256"
        }
      ],
      "name": "subtract",
      "outputs": [],
      "stateMutability": "payable",
      "type": "function"
    },
    {
      "inputs": [
        {
          "internalType": "int256",
          "name": "a",
          "type": "int256"
        },
        {
          "internalType": "int256",
          "name": "b",
          "type": "int256"
        }
      ],
      "name": "multiply",
      "outputs": [],
      "stateMutability": "payable",
      "type": "function"
    },
    {
      "inputs": [
        {
          "internalType": "int256",
          "name": "a",
          "type": "int256"
        },
        {
          "internalType": "int256",
          "name": "b",
          "type": "int256"
        }
      ],
      "name": "divide",
      "outputs": [],
      "stateMutability": "payable",
      "type": "function"
    }
  ],
  "bytecode": "0x608060405234801562000010575f80fd5b5060405162000d1838038062000d18833981810160405281019062000036919062000213565b805f908162000046919062000499565b503360015f6101000a81548173ffffffffffffffffffffffffffffffffffffffff021916908373ffffffffffffffffffffffffffffffffffffffff160217905550506200057d565b5f604051905090565b5f80fd5b5f80fd5b5f80fd5b5f80fd5b5f601f19601f8301169050919050565b7f4e487b71000000000000000000000000000000000000000000000000000000005f52604160045260245ffd5b620000ef82620000a7565b810181811067ffffffffffffffff82111715620001115762000110620000b7565b5b80604052505050565b5f620001256200008e565b9050620001338282620000e4565b919050565b5f67ffffffffffffffff821115620001555762000154620000b7565b5b6200016082620000a7565b9050602081019050919050565b5f5b838110156200018c5780820151818401526020810190506200016f565b5f8484015250505050565b5f620001ad620001a78462000138565b6200011a565b905082815260208101848484011115620001cc57620001cb620000a3565b5b620001d98482856200016d565b509392505050565b5f82601f830112620001f857620001f76200009f565b5b81516200020a84826020860162000197565b91505092915050565b5f602082840312156200022b576200022a62000097565b5b5f82015167ffffffffffffffff8111156200024b576200024a6200009b565b5b6200025984828501620001e1565b91505092915050565b5f81519050919050565b7f4e487b71000000000000000000000000000000000000000000000000000000005f52602260045260245ffd5b5f6002820490506001821680620002b157607f821691505b602082108103620002c757620002c66200026c565b5b50919050565b5f819050815f5260205f209050919050565b5f6020601f8301049050919050565b5f82821b905092915050565b5f600883026200032b7fffffffffffffffffffffffffffffffffffffffffffffffffffffffffffffffff82620002ee565b620003378683620002ee565b95508019841693508086168417925050509392505050565b5f819050919050565b5f819050919050565b5f620003816200037b62000375846200034f565b62000358565b6200034f565b9050919050565b5f819050919050565b6200039c8362000361565b620003b4620003ab8262000388565b848454620002fa565b825550505050565b5f90565b620003ca620003bc565b620003d781848462000391565b505050565b5b81811015620003fe57620003f25f82620003c0565b600181019050620003dd565b5050565b601f8211156200044d576200041781620002cd565b6200042284620002df565b8101602085101562000432578190505b6200044a6200044185620002df565b830182620003dc565b50505b505050565b5f82821c905092915050565b5f6200046f5f198460080262000452565b1980831691505092915050565b5f6200048983836200045e565b9150826002028217905092915050565b620004a48262000262565b67ffffffffffffffff811115620004c057620004bf620000b7565b5b620004cc825462000299565b620004d982828562000402565b5f60209050601f8311600181146200050f575f8415620004fa578287015190505b6200050685826200047c565b86555062000575565b601f1984166200051f86620002cd565b5f5b82811015620005485784890151825560018201915060208501945060208101905062000521565b8683101562000568578489015162000564601f8916826200045e565b8355505b6001600288020188555050505b505050505050565b61078d806200058b5f395ff3fe608060405260043610610054575f3560e01c80633c4308a81461005857806365ac2320146100745780638f84aa091461009e578063a5f3c23b146100c8578063b93ea812146100e4578063f598423614610100575b5f80fd5b610072600480360381019061006d9190610371565b61011c565b005b34801561007f575f80fd5b50610088610167565b6040516100959190610439565b60405180910390f35b3480156100a9575f80fd5b506100b26101f2565b6040516100bf9190610498565b60405180910390f35b6100e260048036038101906100dd9190610371565b610217565b005b6100fe60048036038101906100f99190610371565b610262565b005b61011a60048036038101906101159190610371565b6102ad565b005b5f818361012991906104de565b90507f210e4a658d9ea04b84c7998b5a73abc09d7831fe8426162248508e12692a96ff8160405161015a9190610563565b60405180910390a1505050565b5f8054610173906105a9565b80601f016020809104026020016040519081016040528092919081815260200182805461019f906105a9565b80156101ea5780601f106101c1576101008083540402835291602001916101ea565b820191905f5260205f20905b8154815290600101906020018083116101cd57829003601f168201915b505050505081565b60015f9054906101000a900473ffffffffffffffffffffffffffffffffffffffff1681565b5f818361022491906105d9565b90507f514fee908bd32c04c3d8721ff175d9863c467695e783e453dc1e40952d5ab053816040516102559190610563565b60405180910390a1505050565b5f818361026f919061061a565b90507fbc4cf68d45a613937f630219ce76dd52220cfc56e13c9155e261d216bc9c57c7816040516102a09190610563565b60405180910390a1505050565b5f81036102ef576040517f08c379a00000000000000000000000000000000000000000000000000000000081526004016102e6906106a4565b60405180910390fd5b5f81836102fc91906106ef565b90507f64f5a6681b9eb88d18afa2a7b7fe3a7ae6d1483ade90556dc8ccf40769908bc88160405161032d9190610563565b60405180910390a1505050565b5f80fd5b5f819050919050565b6103508161033e565b811461035a575f80fd5b50565b5f8135905061036b81610347565b92915050565b5f80604083850312156103875761038661033a565b5b5f6103948582860161035d565b92505060206103a58582860161035d565b9150509250929050565b5f81519050919050565b5f82825260208201905092915050565b5f5b838110156103e65780820151818401526020810190506103cb565b5f8484015250505050565b5f601f19601f8301169050919050565b5f61040b826103af565b61041581856103b9565b93506104258185602086016103c9565b61042e816103f1565b840191505092915050565b5f6020820190508181035f8301526104518184610401565b905092915050565b5f73ffffffffffffffffffffffffffffffffffffffff82169050919050565b5f61048282610459565b9050919050565b61049281610478565b82525050565b5f6020820190506104ab5f830184610489565b92915050565b7f4e487b71000000000000000000000000000000000000000000000000000000005f52601160045260245ffd5b5f6104e88261033e565b91506104f38361033e565b92508282026105018161033e565b91507f800000000000000000000000000000000000000000000000000000000000000084145f84121615610538576105376104b1565b5b828205841483151761054d5761054c6104b1565b5b5092915050565b61055d8161033e565b82525050565b5f6020820190506105765f830184610554565b92915050565b7f4e487b71000000000000000000000000000000000000000000000000000000005f52602260045260245ffd5b5f60028204905060018216806105c057607f821691505b6020821081036105d3576105d261057c565b5b50919050565b5f6105e38261033e565b91506105ee8361033e565b92508282019050828112155f8312168382125f841215161715610614576106136104b1565b5b92915050565b5f6106248261033e565b915061062f8361033e565b925082820390508181125f8412168282135f851215161715610654576106536104b1565b5b92915050565b7f43616e6e6f7420646976696465206279207a65726f00000000000000000000005f82015250565b5f61068e6015836103b9565b91506106998261065a565b602082019050919050565b5f6020820190508181035f8301526106bb81610682565b9050919050565b7f4e487b71000000000000000000000000000000000000000000000000000000005f52601260045260245ffd5b5f6106f98261033e565b91506107048361033e565b925082610714576107136106c2565b5b60015f0383147f80000000000000000000000000000000000000000000000000000000000000008314161561074c5761074b6104b1565b5b82820590509291505056fea2646970667358221220862da69c6453f2b06483706f2d0d537925a50e100d4f0956e14599aefa60c3e564736f6c63430008150033",
  "immutableReferences": {},
  "source": "// SPDX-License-Identifier: MIT\r\npragma solidity ^0.8.0;\r\n\r\ncontract AnasCalculator {\r\n    string public ownerName;\r\n    address public ownerAddress;\r\n\r\n    constructor(string memory name) {\r\n        ownerName = name;\r\n        ownerAddress = msg.sender;\r\n    }\r\n\r\n    event AdditionResult(int256 result);\r\n    event SubtractionResult(int256 result);\r\n    event MultiplicationResult(int256 result);\r\n    event DivisionResult(int256 result);\r\n\r\n    function add(int256 a, int256 b) public payable {\r\n        int256 result = a + b;\r\n        emit AdditionResult(result);\r\n    }\r\n\r\n    function subtract(int256 a, int256 b) public payable {\r\n        int256 result = a - b;\r\n        emit SubtractionResult(result);\r\n    }\r\n\r\n    function multiply(int256 a, int256 b) public payable {\r\n        int256 result = a * b;\r\n        emit MultiplicationResult(result);\r\n    }\r\n\r\n    function divide(int256 a, int256 b) public payable {\r\n        require(b != 0, \"Cannot divide by zero\");\r\n        int256 result = a / b;\r\n        emit DivisionResult(result);\r\n    }\r\n}",
  "sourcePath": "C:\\Users\\hp\\Desktop\\ethAvaxmod2\\EthAvaxMod2\\contracts\\AnasCalculator.sol",
  "compiler": {
    "name": "solc",
    "version": "0.8.21+commit.d9974bed.Emscripten.clang"
  },
  "schemaVersion": "3.4.16",
  "updatedAt": "2024-06-16T05:39:32.974Z",
  "devdoc": {
    "kind": "dev",
    "methods": {},
    "version": 1
  },
  "userdoc": {
    "kind": "user",
    "methods": {},
    "version": 1
  }
}